{
  "contractName": "SafeMath",
  "abi": [
    {
      "inputs": [
        {
          "internalType": "uint256",
          "name": "a",
          "type": "uint256"
        },
        {
          "internalType": "uint256",
          "name": "b",
          "type": "uint256"
        }
      ],
      "name": "safeAdd",
      "outputs": [
        {
          "internalType": "uint256",
          "name": "c",
          "type": "uint256"
        }
      ],
      "stateMutability": "pure",
      "type": "function"
    },
    {
      "inputs": [
        {
          "internalType": "uint256",
          "name": "a",
          "type": "uint256"
        },
        {
          "internalType": "uint256",
          "name": "b",
          "type": "uint256"
        }
      ],
      "name": "safeSub",
      "outputs": [
        {
          "internalType": "uint256",
          "name": "c",
          "type": "uint256"
        }
      ],
      "stateMutability": "pure",
      "type": "function"
    },
    {
      "inputs": [
        {
          "internalType": "uint256",
          "name": "a",
          "type": "uint256"
        },
        {
          "internalType": "uint256",
          "name": "b",
          "type": "uint256"
        }
      ],
      "name": "safeMul",
      "outputs": [
        {
          "internalType": "uint256",
          "name": "c",
          "type": "uint256"
        }
      ],
      "stateMutability": "pure",
      "type": "function"
    },
    {
      "inputs": [
        {
          "internalType": "uint256",
          "name": "a",
          "type": "uint256"
        },
        {
          "internalType": "uint256",
          "name": "b",
          "type": "uint256"
        }
      ],
      "name": "safeDiv",
      "outputs": [
        {
          "internalType": "uint256",
          "name": "c",
          "type": "uint256"
        }
      ],
      "stateMutability": "pure",
      "type": "function"
    }
  ],
  "bytecode": "0x608060405234801561001057600080fd5b506103c5806100206000396000f3fe608060405234801561001057600080fd5b506004361061004c5760003560e01c8063a293d1e814610051578063b5931f7c14610081578063d05c78da146100b1578063e6cb9013146100e1575b600080fd5b61006b600480360381019061006691906101ec565b610111565b604051610078919061023b565b60405180910390f35b61009b600480360381019061009691906101ec565b610134565b6040516100a8919061023b565b60405180910390f35b6100cb60048036038101906100c691906101ec565b610156565b6040516100d8919061023b565b60405180910390f35b6100fb60048036038101906100f691906101ec565b61018e565b604051610108919061023b565b60405180910390f35b60008282111561012057600080fd5b818361012c9190610285565b905092915050565b600080821161014257600080fd5b818361014e91906102e8565b905092915050565b600081836101649190610319565b9050600083148061017f575081838261017d91906102e8565b145b61018857600080fd5b92915050565b6000818361019c919061035b565b9050828110156101ab57600080fd5b92915050565b600080fd5b6000819050919050565b6101c9816101b6565b81146101d457600080fd5b50565b6000813590506101e6816101c0565b92915050565b60008060408385031215610203576102026101b1565b5b6000610211858286016101d7565b9250506020610222858286016101d7565b9150509250929050565b610235816101b6565b82525050565b6000602082019050610250600083018461022c565b92915050565b7f4e487b7100000000000000000000000000000000000000000000000000000000600052601160045260246000fd5b6000610290826101b6565b915061029b836101b6565b92508282039050818111156102b3576102b2610256565b5b92915050565b7f4e487b7100000000000000000000000000000000000000000000000000000000600052601260045260246000fd5b60006102f3826101b6565b91506102fe836101b6565b92508261030e5761030d6102b9565b5b828204905092915050565b6000610324826101b6565b915061032f836101b6565b925082820261033d816101b6565b9150828204841483151761035457610353610256565b5b5092915050565b6000610366826101b6565b9150610371836101b6565b925082820190508082111561038957610388610256565b5b9291505056fea2646970667358221220a43f3bdc93b980a90ee92f565bb4209108444862c59425fdbaf799a7754d834d64736f6c63430008130033",
  "immutableReferences": {},
  "source": "// SPDX-License-Identifier: MIT\r\n\r\npragma solidity ^0.8.19;\r\n\r\n//Safe Math Interface\r\n \r\ncontract SafeMath {\r\n \r\n    function safeAdd(uint a, uint b) public pure returns (uint c) {\r\n        c = a + b;\r\n        require(c >= a);\r\n    }\r\n \r\n    function safeSub(uint a, uint b) public pure returns (uint c) {\r\n        require(b <= a);\r\n        c = a - b;\r\n    }\r\n \r\n    function safeMul(uint a, uint b) public pure returns (uint c) {\r\n        c = a * b;\r\n        require(a == 0 || c / a == b);\r\n    }\r\n \r\n    function safeDiv(uint a, uint b) public pure returns (uint c) {\r\n        require(b > 0);\r\n        c = a / b;\r\n    }\r\n}\r\n\r\n//ERC Token Standard #20 Interface\r\n \r\ninterface ERC20Interface {\r\n    function totalSupply() external view returns (uint);\r\n    function balanceOf(address tokenOwner) external view  returns (uint balance);\r\n    function allowance(address tokenOwner, address spender) external view  returns (uint remaining);\r\n    function transfer(address to, uint tokens) external returns (bool success);\r\n    function approve(address spender, uint tokens) external returns (bool success);\r\n    function transferFrom(address from, address to, uint tokens) external returns (bool success);\r\n \r\n    event Transfer(address indexed from, address indexed to, uint tokens);\r\n    event Approval(address indexed tokenOwner, address indexed spender, uint tokens);\r\n}\r\n \r\n\r\n//Actual token contract\r\n \r\ncontract Guidini is ERC20Interface, SafeMath {\r\n    string public symbol;\r\n    string public  name;\r\n    uint8 public decimals;\r\n    uint public _totalSupply;\r\n \r\n    mapping(address => uint) balances;\r\n    mapping(address => mapping(address => uint)) allowed;\r\n \r\n    constructor() public {\r\n        symbol = \"GUID\";\r\n        name = \"Guidini Coin\";\r\n        decimals = 18;\r\n        _totalSupply = 1_000_001_000_000_000_000_000_000;\r\n        balances[0xE20470DBfF35E214A78f74132Aa9Ca06d1F4595e] = _totalSupply;\r\n        emit Transfer(address(0), 0xE20470DBfF35E214A78f74132Aa9Ca06d1F4595e, _totalSupply);\r\n    }\r\n \r\n    function totalSupply() public view returns (uint) {\r\n        return _totalSupply  - balances[address(0)];\r\n    }\r\n \r\n    function balanceOf(address tokenOwner) public view returns (uint balance) {\r\n        return balances[tokenOwner];\r\n    }\r\n \r\n    function transfer(address to, uint tokens) public returns (bool success) {\r\n        balances[msg.sender] = safeSub(balances[msg.sender], tokens);\r\n        balances[to] = safeAdd(balances[to], tokens);\r\n        emit Transfer(msg.sender, to, tokens);\r\n        return true;\r\n    }\r\n \r\n    function approve(address spender, uint tokens) public returns (bool success) {\r\n        allowed[msg.sender][spender] = tokens;\r\n        emit Approval(msg.sender, spender, tokens);\r\n        return true;\r\n    }\r\n \r\n    function transferFrom(address from, address to, uint tokens) public returns (bool success) {\r\n        balances[from] = safeSub(balances[from], tokens);\r\n        allowed[from][msg.sender] = safeSub(allowed[from][msg.sender], tokens);\r\n        balances[to] = safeAdd(balances[to], tokens);\r\n        emit Transfer(from, to, tokens);\r\n        return true;\r\n    }\r\n \r\n    function allowance(address tokenOwner, address spender) public view returns (uint remaining) {\r\n        return allowed[tokenOwner][spender];\r\n    }\r\n \r\n    \r\n \r\n  \r\n}",
  "sourcePath": "C:\\Users\\Moad\\Desktop\\guidini\\backend\\blockchain\\contracts\\Points_without_library.sol",
  "compiler": {
    "name": "solc",
    "version": "0.8.19+commit.7dd6d404.Emscripten.clang"
  },
  "schemaVersion": "3.4.14",
  "updatedAt": "2023-07-26T09:14:44.483Z",
  "devdoc": {
    "kind": "dev",
    "methods": {},
    "version": 1
  },
  "userdoc": {
    "kind": "user",
    "methods": {},
    "version": 1
  }
}